:1000000070C18AC1AFC188C1E2C10FC285C199C1A7
:1000100083C16BC481C126C57FC17EC17DC17CC146
:100020007BC183C492C4ADC4C9C4D4C4E0C4FBC4FE
:1000300000C56437373737373737373737373737CC
:1000400036343331302F2E2D2C2B2B2A29292827DB
:10005000262626252424242423232222222121216A
:1000600020202020201F1F1F1E1F1E1E1E1D1E1DA4
:100070001D1D1D1D1D1C1C1C1C1C1C1C1C1C1B1BBD
:100080001B1B1B1B1B1B1B1B1A1B1A1A1A1A1A1AC7
:100090001A1A1A1A1A1A1A1A1A191A191A191A19C4
:1000A00019191919191919191919191919191919C0
:1000B00019191919191919191919191919191919B0
:1000C00019191919191A191A191A191A1A1A1A1A98
:1000D0001A1A1A1A1A1A1A1A1A1A1B1A1B1B1B1B7B
:1000E0001B1B1B1B1B1B1C1C1C1C1C1C1C1C1C1D55
:1000F0001D1D1D1D1D1E1D1E1E1E1F1E1F1F1F2020
:1001000020202020212121222222232324242424D0
:1001100025262626272829292A2B2B2C2D2E2F3041
:1001200031333436383A3C3F42464A4F56646E6E5D
:1001300080AA4B1919191919191919191919191A04
:100140002726262525242423232322222221212178
:100150002120212020201F201F1F1F1F1F1F1E1EA8
:100160001E1E1E1E1E1D1E1D1D1D1D1D1D1D1D1DB9
:100170001D1C1D1C1C1D1C1C1C1C1C1C1C1C1C1CBC
:100180001C1C1C1C1C1C1C1B1C1C1C1B1C1C1B1CB2
:100190001B1C1B1C1B1C1B1C1B1C1B1C1B1C1C1BA7
:1001A0001C1B1C1C1C1B1C1C1C1C1C1C1C1C1C1C91
:1001B0001C1C1C1C1C1C1C1C1C1C1C1D1C1C1D1D7C
:1001C0001C1D1D1D1D1D1D1D1D1D1D1E1D1E1D1E5D
:1001D0001E1E1E1E1E1E1F1E1F1F1F1F1F1F1F2035
:1001E0001F20202020202021212121212122222204
:1001F00022222223232323242424242525252626C2
:100200002627272727282829292A2A2B2B2B2C2D5C
:100210002D2E2F2F303132323435353738393B3CA3
:100220003E404244474A4D51666464646464646479
:1002300080AAFEFEFEFEFEFEFEAA0100FF000501F2
:100240000000010000080102000100000148656E85
:100250006E65000000005000000000000003002157
:100260000001006400000400360001000000E0000E
:10027000F000820081003003040300030103020147
:1002800001037F0000000000000000000F000000DC
:10029000005377697463680803037F00000000005F
:1002A0000000000040000000005072656865617445
:1002B0000803037F0000000000BF000000FF0000F3
:1002C00000FF546F707365740803037F0000000023
:1002D0000000000000FF000000804572725363655B
:1002E0006E6511241FBECFE5D2E0DEBFCDBF10E0AA
:1002F000A0E6B0E0E8EEF1E102C005900D92A23672
:10030000B107D9F710E0A2E6B0E001C01D92AB3D05
:10031000B107E1F720D166C773CE9C01E199FECF0A
:100320003FBB2EBBE09A8DB308959C01E199FECFAF
:100330003FBB2EBB6DBB0FB6F894E29AE19A0FBE9D
:1003400008951F920F920FB60F9211248F938091F0
:100350008C008F5F80938C008F910F900FBE0F9059
:100360001F9018951F920F920FB60F9211248F9322
:100370009F93EF93FF938091950089608093950000
:100380001DBC1CBC80E688BF89B7806689BF8BB75F
:100390008F778BBF8FEF80936000809165008823FB
:1003A00021F4E1E3F1E0E49103C0E1E3F2E0E49160
:1003B0008E2F90E0880F991F99BD88BDFF91EF9116
:1003C0009F918F910F900FBE0F901F9018951F92C5
:1003D0000F920FB60F9211248F939F93EF93FF9379
:1003E0001DBC1CBC89B7806289BF89B78F7B89BF60
:1003F0008FEF8093600080916500882321F4E1E312
:10040000F1E0E49103C0E1E3F2E0E4918E2F90E0AB
:10041000880F991F99BD88BDFF91EF919F918F9192
:100420000F900FBE0F901F9018951F920F920FB64E
:100430000F9211242F933F934F935F938F939F932A
:10044000EF93FF934091600080918D00841708F036
:10045000D89880918E00841708F0D99880918F00E9
:10046000841708F0DA9880919000841708F0DB98E0
:1004700080919100841708F0DC9880919200841795
:1004800008F0DD9880919300841708F0DE98809141
:100490009400841708F0DF9828B539B550916500AD
:1004A0004150A1F589B78F7D89BF80918D008F3F25
:1004B00009F0D89A80918E008F3F09F0D99A8091E7
:1004C0008F008F3F09F0DA9A809190008F3F09F0FA
:1004D000DB9A809191008F3F09F0DC9A8091920025
:1004E0008F3F09F0DD9A809193008F3F09F0DE9AEB
:1004F000809194008F3F09F0DF9A09B606FC1EC078
:1005000080E88ABF8BB780688BBF18C0E42FF0E00B
:10051000552321F4EE5CFF4F849103C0EE5CFE4F47
:100520008491280F311D8CB59DB5059682179307D0
:1005300008F0B6CF4093600039BD28BDFF91EF9120
:100540009F918F915F914F913F912F910F900FBE8F
:100550000F901F9018951F93F894A8952DE088E1AF
:1005600090E00FB6F894A89581BD0FBE21BDA89567
:100570008FEF8ABB8BBB17BA83E088BB86E881BB51
:100580008AE782BB81E086B987E087B980E197E29C
:100590009BBD8ABD84E083BF1FBC82E08EBD89BF46
:1005A00088E085BF8BB780688BBF8AB780688ABFB9
:1005B00082E588B904D1E199FECF21E030E03FBB6C
:1005C0002EBBE09A8DB3883409F478C03093640070
:1005D000209363001092650010926600E7E6F0E059
:1005E0008FEF108A10828087319690E0EF36F907FE
:1005F000C1F7E199FECF81E090E09FBB8EBB88E41C
:100600008DBB0FB6F894E29AE19A0FBE82E090E0BB
:1006100063E670E04CE150E025E931E07DD5E199F9
:10062000FECF8EE190E09FBB8EBB85E08DBB0FB609
:10063000F894E29AE19A0FBEE199FECF8FE190E043
:100640009FBB8EBB88E48DBB0FB6F894E29AE19A0B
:100650000FBEE199FECF80E290E09FBB8EBB85E4A8
:100660008DBB0FB6F894E29AE19A0FBEE199FECFE6
:1006700081E290E09FBB8EBB8EE48DBB0FB6F894F9
:10068000E29AE19A0FBEE199FECF82E290E09FBB31
:100690008EBB8EE48DBB0FB6F894E29AE19A0FBE42
:1006A000E199FECF83E290E09FBB8EBB85E48DBBDA
:1006B0000FB6F894E29AE19A0FBE09C083E690E083
:1006C00062E070E04CE150E02DE831E00BD5789429
:1006D0001FEFFBD180918C00883090F010928C003D
:1006E000A89582B3805882BB459B04C08091950039
:1006F0008F7E03C08091950080618093950093D494
:100700008091950080FFE5CF809195008E7F80934A
:1007100095008091950084FF33C080916600682F1A
:1007200070E0A7E6B0E020E030E0F901E158FF4FCB
:10073000E0814C91E41738F018968C9118974E2F61
:100740008E1708F4482FCB01022E02C0959587958D
:100750000A94E2F780FF09C0F901E357FF4F47FF12
:1007600002C0108306C0108204C0F901E357FF4F96
:1007700040832F5F3F4F119628303105B1F6A9CF46
:1007800080E090E0FC01E357FF4F10820196883033
:100790009105C1F79ECF9C01E199FECF3FBB2EBBD7
:1007A000E09A8DB308959C01E199FECF3FBB2EBB2B
:1007B0006DBB0FB6F894E29AE19A0FBE0895929835
:1007C00010BC81E089B98EE880BD80E98AB91092B9
:1007D00062008CB180E090E0FC01E158FF4F108294
:1007E000019688309105C1F781E48093D20084E6B8
:1007F0008093D3008FEF8093D40088E68093D50058
:100800008093D60083B380958093D70090E082597F
:10081000974F9093D8008093D9000895982F0BC0DC
:100820008091950080FFFCCF809195008E7F809312
:100830009500A8959150992399F708958091990072
:100840008F3F09F448C0929AE6E9F0E0A2EDB0E0EB
:10085000818583838D918187319680E0A83DB8079B
:10086000B9F78CEC8093960081E08093970080919B
:10087000AD00982F985E90939800875E8093D1008A
:100880001092A7008091AA008F5F8093AA0040E099
:1008900050E020E030E008C0F901EA56FF4F8081C7
:1008A000480F511D2F5F3F4F2917B0F3E92FF0E09C
:1008B000EA56FF4F5083E0919800F0E0E956FF4F71
:1008C00040838AE089B91092CD0088E48AB91CB8C7
:1008D00089E08093620008959DE09A95F1F78CB9C4
:1008E00080E48BB95E9BFECF08951F920F920FB6E6
:1008F0000F9211242F933F938F939F93AF93BF93A6
:10090000EF93FF938BB13CB184FF03C05C9881E00F
:100910009AC08091620090E0FC013197E830F105C7
:1009200008F090C0EF5EFF4F0994332349F48091A3
:100930006300909164009093CF008093CE0010C02C
:100940003C3C09F07FC084E07EC08091CE00909155
:10095000CF0001979093CF008093CE00892B11F0A8
:1009600082E071C080917F00831739F030937F005F
:100970008091950082608093950081E08093D00003
:1009800015C09091D000E92FF0E0E158FF4F808131
:10099000831731F0308380919500826080939500B9
:1009A000892F8F5F8093D000883010F483E04BC094
:1009B0008091950084608093950044C0313009F0A7
:1009C00041C08091DA0081FD3DC083E08093D0007A
:1009D00085E039C0309398003733A0F5832F90E03D
:1009E00083539F4F9093CF008093CE0018C02091E7
:1009F000D000E22FF0E0EA56FF4F30832F5F2093C4
:100A0000D0008091CE009091CF00830F911D9093E4
:100A1000CF008093CE0080919800821711F086E07D
:100A200012C087E010C08091CF00381759F488E0D9
:100A30000AC08091CE00381729F48091DA008260D4
:100A40008093DA0080E080936200FF91EF91BF9184
:100A5000AF919F918F913F912F910F900FBE0F906B
:100A60001F9018951F920F920FB60F9211248F931B
:100A70009F93EF93FF938DE08A95F1F79091CD00CE
:100A8000992319F481E089B90EC08091D1008917AA
:100A900050F41092620080E98AB9789485E38A95CF
:100AA000F1F7929809C0E92FF0E0EA56FF4F8081F4
:100AB0008CB99F5F9093CD00FF91EF919F918F91A3
:100AC0000F900FBE0F901F9018951F93CF93DF9339
:100AD000299B11C083B3282F20952A9B02C030E0A8
:100AE00001C031E02115310509F421E030936400A3
:100AF0002093630094C26091DA00762F61FF8FC269
:100B0000A6E9B0E0C2EDD0E0FE0190E030E013963F
:100B10002C9113978081281331E02F3F09F091E049
:100B20001196319620E0E83DF20789F79111932F55
:100B3000992309F06FC246E950E01092A600309167
:100B4000AB0020E08091AC0090E0822B932B8138A9
:100B5000910509F489C18238910500F5803391052A
:100B600009F48BC18133910560F48230910509F459
:100B7000A9C08330910509F4A7C0019709F040C2CC
:100B800037C08135910509F49AC18036910509F481
:100B900020C18035910509F033C288C123E080303F
:100BA000920709F4D7C123E08130920768F4803EB0
:100BB000910509F4EBC0803F910509F4CBC0823860
:100BC000910509F01DC21BC123E08230920709F490
:100BD000F5C123E08230920708F4D6C123E08430C7
:100BE000920709F49CC18050904109F009C274C079
:100BF000DA01E2EDF0E058969C91589780819817C1
:100C000048F0891708F406C21196319680E0E83D55
:100C1000F80789F7A6E9B0E0E2EDF0E05E969C9176
:100C20005E978081891748F0981708F4F3C11196F0
:100C3000319620E0E83DF20789F772FDEBC110BC68
:100C40008AE089B988E08AB98DE08A95F1F78FEF5B
:100C50008CB980E48BB95E9BFECF81E089B9929A12
:100C6000E2E3F2E03DE020E48491932F9A95F1F7DE
:100C70008CB92BB95E9BFECF319682E0EA33F80740
:100C800099F7A8954DE030E42881822F8A6A942F45
:100C90009A95F1F78CB93BB95E9BFECF2565842F01
:100CA0008A95F1F72CB93BB95E9BFECF219620E0E7
:100CB000CA3DD20749F7A89510926200929880E940
:100CC0008AB9A8C1646001C06B7F6093DA0010929A
:100CD000AE001092AF0058C08091AA008033B9F5E1
:100CE0001092AD001091AE00A9DD113009F092C153
:100CF0002FE02AC08091670080938D008091700062
:100D000080938E0098E08091950080FFFCCF8091C9
:100D100095008E7F80939500A8959150A1F78091C2
:100D2000680080938E0080916F0080938D0098E022
:100D30008091950080FFFCCF809195008E7F8093FD
:100D40009500A8959150A1F72150A1F663C110928A
:100D5000AE00FEC08091AA00803371F46091AF00B4
:100D60007091AE00709364006093630082E090E045
:100D700043ED53E0EBD108C0809163009091640093
:100D80009093AE008093AF0082E041C18091AA00B1
:100D90008033B1F42091AE0021502093AE00223078
:100DA000A0F420936500E199FECF84E090E09FBB22
:100DB0008EBB2DBB0FB6F894E29AE19A0FBE05C028
:100DC000809165008F5F8093AE0082E08093AF00DA
:100DD0001EC1CA0148966AE372E043E150E079D14E
:100DE0008091630090916400209165002F5F2093B3
:100DF000BA009093BC008093BD0083E108C180914C
:100E0000AA008033F1F48091AD00813218F080E2C5
:100E10008093AD004091AD00E199FECF8EE190E06E
:100E20009FBB8EBB4DBB0FB6F894E29AE19A0FBE02
:100E30008FE190E06EEA70E050E023ED33E06CD19A
:100E4000E8C0E199FECF8EE190E09FBB8EBBE09AB7
:100E50004DB34093AD008EEA90E06FE170E050E05A
:100E60002BEC33E03FD1D5C0CA0148966DE472E067
:100E700045E050E02ED185E0CAC080918B008130E2
:100E800029F4CA01489664E672E00BC0823029F466
:100E9000CA0148966BE572E004C0CA01489662E553
:100EA00072E049E050E015D189E0B1C0CA0148962E
:100EB0006DE672E042E150E00CD182E1A8C0809181
:100EC000AE00833009F0A6C08091AF00843029F4D1
:100ED000CA014A966FE772E011C0882349F4CA013B
:100EE0004A9667E972E049E150E0F3D08BE18FC0A8
:100EF000813049F480EB90E060EB72E048E150E033
:100F0000E8D08AE184C0823009F083C080EB90E0B1
:100F100068EC72E04AE150E0DCD08CE178C080916E
:100F2000AA00803389F42091AE0020936600E199F5
:100F3000FECF85E090E09FBB8EBB2DBB0FB6F89433
:100F4000E29AE19A0FBE04C0809166008093AE00E1
:100F500081E05DC08091AA00803361F4A7E6B0E033
:100F6000FA01789688E001900D928150E1F786E0D1
:100F700090E033C0DA015896E7E6F0E088E00190AF
:100F80000D928150E1F73AC08091AA00803361F45C
:100F9000AFE6B0E0FA01789688E001900D928150BA
:100FA000E1F78EE090E019C0DA015896EFE6F0E044
:100FB00088E001900D928150E1F720C08091AA0055
:100FC000803399F4A7E7B0E0FA01789688E00190C1
:100FD0000D928150E1F786E190E06EEA70E048E022
:100FE00050E023ED33E098D009C0DA015896E7E7E6
:100FF000F0E088E001900D928150E1F788E007C0B1
:101000001092AE001092AF0082E08093A600809311
:10101000AD0014DC8091DA008D7F8093DA00DF91DF
:10102000CF911F9108958091950081FF0AC0809112
:1010300095008D7F8093950087B191E0892787B9CE
:1010400001C0389A8091610080FF02C0979801C06A
:10105000979A8695809361008230D0F580919500B3
:1010600083FD05C08AEA8093610081E008C0809119
:10107000950084FD07C08FEF8093610082E080932C
:101080008B0021C08091950082FD18C0E7E7F0E059
:101090009FEF80818F3F09F090E0319680E0EF373D
:1010A000F807B9F7992341F4AFE7B0E0389788E043
:1010B00001900D928150E1F782E801C080E88093B1
:1010C000610010928B0080919500837F8093950042
:1010D0000895FB01DC0102C005900D924150504083
:1010E000D8F70895A0E0B0E0E7E7F8E04EC07C0153
:1010F000EB018A01690109C0CE012196F60109952B
:10110000F70181937F010150104001151105A1F7EE
:10111000CDB7DEB7E8E055C0A0E0B0E0E1E9F8E027
:1011200034C0EC017B018A01690109C0CE0121961E
:10113000F70161917F01F6010995015010400115F9
:101140001105A1F7CDB7DEB7E8E03BC0DF92EF9223
:10115000FF920F931F93D72E7A018C01FA01099504
:10116000C80101966D2DF70109951F910F91FF9010
:10117000EF90DF9008952F923F924F925F926F927F
:101180007F928F929F92AF92BF92CF92DF92EF9217
:10119000FF920F931F93CF93DF93CDB7DEB7CA1B98
:1011A000DB0B0FB6F894DEBF0FBECDBF09942A88C3
:1011B000398848885F846E847D848C849B84AA846B
:1011C000B984C884DF80EE80FD800C811B81AA81F8
:1011D000B981CE0FD11D0FB6F894DEBF0FBECDBFC3
:0811E000ED010895F894FFCF22
:0211E800FFFF07
:00000001FF
